:100000000C946C000C9498040C9471040C9494005F
:100010000C9494000C9494000C9494000C94940010
:100020000C9494000C9494000C9494000C94940000
:100030000C9494000C9494000C9494000C949400F0
:100040000C94D1030C9494000C9494000C949400A0
:100050000C9494000C9494000C9494000C949400D0
:100060000C9494000C94940087072B08FB086B0AEF
:10007000400B450CBA0D7F0ECD09020C00000000AC
:10008000240027002A0000000000250028002B0083
:1000900000000000230026002900040404040404D6
:1000A0000404020202020202030303030303010227
:1000B00004081020408001020408102001020408F6
:1000C00010200000000800020100000304070000E7
:1000D000000000000000FA0E11241FBECFEFD8E090
:1000E000DEBFCDBF11E0A0E0B1E0E6E8F3E202C080
:1000F00005900D92AC3EB107D9F722E0ACEEB1E02D
:1001000001C01D92A732B207E1F710E0CCE6D0E0C3
:1001100004C02197FE010E94B611CB36D107C9F762
:100120000E949E060C94C1110C940000833081F053
:1001300028F4813099F08230A1F008958730A9F039
:100140008830B9F08430D1F4809180008F7D03C075
:10015000809180008F7780938000089584B58F7799
:1001600002C084B58F7D84BD08958091B0008F77E3
:1001700003C08091B0008F7D8093B00008953FB799
:10018000F8948091220290912302A0912402B091D0
:10019000250226B5A89B05C02F3F19F00196A11D89
:1001A000B11D3FBFBA2FA92F982F8827820F911D0D
:1001B000A11DB11DBC01CD0142E0660F771F881F54
:1001C000991F4A95D1F70895009769F0FC010190B5
:1001D0000020E9F73197AF01481B590BBC0185E0BE
:1001E00092E00C941C0480E090E008958F929F921E
:1001F000AF92BF920F931F93CF93DF93CDB7DEB72C
:10020000A1970FB6F894DEBF0FBECDBF19A2423042
:1002100008F44AE08E010F5D1F4F842E912CA12C13
:10022000B12CA50194010E94420FE62FB901CA0129
:1002300001501109EA3014F4E05D01C0E95CD80115
:10024000EC93232B242B252B61F7C8010E94E4009B
:10025000A1960FB6F894DEBF0FBECDBFDF91CF9150
:100260001F910F91BF90AF909F908F90089540E0A5
:10027000682F85E092E00C94EC0481E00E94370145
:100280008BE39FE10197F1F708950C94E40064304B
:1002900008F063E090911802691710F06FEF690F92
:1002A000E62FF0E0EB5FFD4F9489890F80680C9496
:1002B0003701CF92DF92EF92FF926C01990FEE0817
:1002C000FF08F7FE16C041E06DE285E092E00E9473
:1002D000EC0466277727CB016C197D098E099F09ED
:1002E0004AE00E94F6000196FF90EF90DF90CF90D9
:1002F00008954AE0C701B601FF90EF90DF90CF90DC
:100300000C94F6008F929F92AF92BF92CF92DF92A1
:10031000EF92FF920F931F93CF93DF936B017C01BA
:10032000142F9B01AC010E94B111882319F082E4C3
:1003300091E027C046015701E894B7F82FEF3FEF4F
:100340004FE75FE7C501B4010E94B11181110DC0F3
:100350002FEF3FEF4FE75FE7C501B4010E94E00FC9
:1003600018161CF486E491E00CC02FEF3FEF4FE726
:100370005FE4C701B6010E943F11181684F48AE4B5
:1003800091E0DF91CF911F910F91FF90EF90DF905F
:10039000CF90BF90AF909F908F900C94E4002FEF80
:1003A0003FEF4FE75FECC701B6010E94E00F87FD0A
:1003B000E6CF20E030E0A901C701B6010E94E00FBE
:1003C00087FF0DC041E06DE285E092E00E94EC0401
:1003D000F7FAF094F7F8F094C1E0D0E002C0C0E082
:1003E000D0E000E060E070E080E09FE3101741F0B3
:1003F00020E030E040E251E40E94E50F0F5FF6CFCD
:10040000A70196010E94740F6B017C010E945E108F
:100410004B015C014AE00E94F600C80FD91F11236E
:10042000B9F1C501B4010E948D109B01AC01C70157
:10043000B6010E94730F6B017C0141E06EE285E022
:1004400092E00E94EC04219620E030E040E251E48A
:10045000C701B6010E9444114B015C010E945E106D
:100460006B01E12CF12C4AE0C701B6010E94F600B5
:10047000C80FD91FC701B6010E948D109B01AC01A6
:10048000C501B4010E94730F6B017C011150E1F6AC
:10049000CE01DF91CF911F910F91FF90EF90DF90F0
:1004A000CF90BF90AF909F908F900895CF93DF93A0
:1004B000282F30E0F901EE53FF4F8491F901E25506
:1004C000FF4FD491F901E656FF4FC491CC2391F030
:1004D00081110E949600EC2FF0E0EE0FFF1FE05715
:1004E000FF4FA591B491EC91ED2381E090E021F4D0
:1004F00080E002C080E090E0DF91CF9108951F93EB
:10050000CF93DF93282F30E0F901EE53FF4F849112
:10051000F901E255FF4FD491F901E656FF4FC4911E
:10052000CC23C1F0162F81110E949600EC2FF0E031
:10053000EE0FFF1FEA57FF4FA591B4919FB7F894B4
:10054000111104C08C91D095D82302C0EC91DE2B00
:10055000DC939FBFDF91CF911F910895CF93DF93DD
:1005600090E0FC01E255FF4F2491FC01E656FF4F5D
:100570008491882361F190E0880F991FFC01E45871
:10058000FF4FC591D491FC01EA57FF4FA591B4915B
:10059000611109C09FB7F8948881209582238883D0
:1005A000EC912E230BC0623061F49FB7F8948881E0
:1005B000322F309583238883EC912E2B2C939FBF71
:1005C00006C08FB7F894E8812E2B28838FBFDF9168
:1005D000CF910895CF93DF93823028F09091140249
:1005E000986090931402809318021092190280E48C
:1005F00080931A0280E180931B0280E580931C02A5
:1006000061E0809109020E94AE0280910A028F3F50
:1006100019F061E00E94AE0261E080910B020E943D
:10062000AE02C5E0D2E09E01255032408091140216
:1006300084FD03C084E090E002C088E090E0219651
:10064000281739072CF461E08E810E94AE02EBCFAF
:100650008BE39DE00197F1F760E0809109020E9431
:100660007F0260E080910B020E947F0280910A026B
:100670008F3F19F060E00E947F028091140284FD98
:1006800020C063E085E092E00E94BF04CBE4D6E4A2
:10069000CE010197F1F763E085E092E00E94BF048C
:1006A0002197F1F763E085E092E00E94BF0483E5C3
:1006B00092E00197F1F762E085E092E00E94BF04CA
:1006C00015C080620E9437018BE496E40197F1F730
:1006D0008091140280620E94370183E592E00197C5
:1006E000F1F78091140280620E9437018091140218
:1006F00080620E94370184E0809315028CE00E94A2
:1007000037010E943D0182E08093160286E0DF916E
:10071000CF910C9437018F929F92AF92BF92CF925C
:10072000DF92EF92FF926B017C010E94BF004B01B0
:100730005C01C114D104E104F104F1F00E94BF0096
:10074000DC01CB0188199909AA09BB09883E9340AD
:10075000A105B10570F321E0C21AD108E108F10842
:1007600088EE880E83E0981EA11CB11CC114D10430
:10077000E104F10419F7DDCFFF90EF90DF90CF9007
:10078000BF90AF909F908F9008952FB7F89460918D
:100790001E0270911F0280912002909121022FBFB2
:1007A00008951F920F920FB60F9211242F933F932B
:1007B0008F939F93AF93BF9380911E0290911F02DE
:1007C000A0912002B091210230911D0223E0230F5D
:1007D0002D3720F40196A11DB11D05C026E8230F79
:1007E0000296A11DB11D20931D0280931E029093BD
:1007F0001F02A0932002B0932102809122029091C7
:100800002302A0912402B09125020196A11DB11DE1
:100810008093220290932302A0932402B093250296
:10082000BF91AF919F918F913F912F910F900FBEEC
:100830000F901F9018950895CF92DF92EF92FF923C
:100840000F931F93CF93DF936C017A018B01C0E06C
:10085000D0E0CE15DF0581F0D8016D918D01D60174
:10086000ED91FC910190F081E02DC6010995892B55
:1008700011F02196EECF7E01C701DF91CF911F913C
:100880000F91FF90EF90DF90CF900895089580E052
:1008900090E008950E94BC11CF93DF93EC0160E0DB
:1008A0008E810E947F0261E08E810E947F0260E063
:1008B0008E810E947F028BE891E00197F1F7DF9132
:1008C000CF9108950E943D0168EC70E080E090E0D7
:1008D0000E948B0381E090E09093ED018093EC0106
:1008E00008951F920F920FB60F9211242F933F93EA
:1008F0004F935F936F937F938F939F93AF93BF9328
:10090000EF93FF93E0910201F09103010995FF91AC
:10091000EF91BF91AF919F918F917F916F915F9177
:100920004F913F912F910F900FBE0F901F901895F0
:100930001F920F920FB60F9211242F933F934F9354
:100940005F936F937F938F939F93AF93BF93EF9337
:10095000FF93E0910001F09101010995FF91EF9162
:10096000BF91AF919F918F917F916F915F914F91C7
:100970003F912F910F900FBE0F901F901895CF921F
:10098000DF92EF92FF920F931F93CF93DF936C014F
:100990007C0187E0E80EF11CC0E0D0E0062F10E0FB
:1009A000B8010C2E02C0759567950A94E2F7617044
:1009B000F70181917F010E947F022196C430D10509
:1009C00079F7C601DF91CF911F910F91FF90EF90C2
:1009D000DF90CF900C944C04CF92DF92EF92FF9275
:1009E0000F931F93CF93DF93EC01F62E642F8C812E
:1009F0000E947F028D818F3F19F060E00E947F028C
:100A00008F850F2D10E084FF25C06E0187E0C80E92
:100A1000D11CE12CF12CB8010E2C02C07595679504
:100A20000A94E2F76170F60181916F010E947F02E2
:100A3000FFEFEF1AFF0A88E0E816F10461F7CE0134
:100A4000DF91CF911F910F91FF90EF90DF90CF90AA
:100A50000C944C04B80184E0759567958A95E1F78C
:100A6000CE010E94BF046F2DCE01DF91CF911F9167
:100A70000F91FF90EF90DF90CF900C94BF0441E076
:100A80000E94EC0481E090E0089564E670E080E06C
:100A900090E00E948B030C943D01CF93C82F60E03F
:100AA00081E00E9447018EE491E00E94450162E0EE
:100AB00080E00E944701CC2319F089E591E002C053
:100AC00087E691E0CF910C944501CF93C82F60E069
:100AD00081E00E94470186E791E00E94450162E0C3
:100AE00080E00E944701CC2319F089E591E002C023
:100AF00087E691E0CF910C944501CF93DF93EC0111
:100B000060E081E00E94470182E891E00E94450197
:100B100062E080E00E94470183E991E00E94450184
:100B200062E086E00E94470189E991E00E94450168
:100B300062E089E00E944701CE010E94590162E013
:100B40008BE00E9447018CE991E0DF91CF910C94FA
:100B500045011F93CF93DF93182FEB0160E081E0F5
:100B60000E9447018EE991E00E94450162E080E029
:100B70000E94470183E991E00E94450162E0112350
:100B800059F184E00E94470189E991E00E94450102
:100B900062E087E00E944701CE010E94590162E0B5
:100BA000C436D10554F08AE00E94470180912602A4
:100BB000882379F0109226020AC089E00E9447013A
:100BC00080912602811105C081E0809326020E9457
:100BD00045058CE991E005C088E00E9447018DEA57
:100BE00091E0DF91CF911F910C944501CF93DF935A
:100BF000EC0160E081E00E94470182E891E00E9400
:100C0000450162E080E00E94470181EB91E00E9493
:100C1000450162E086E00E94470189E991E00E9477
:100C2000450162E089E00E944701CE010E9459011E
:100C300062E08BE00E9447018CE991E0DF91CF9167
:100C40000C9445011F93CF93DF93182FEB0160E0C5
:100C500081E00E94470188EB91E00E94450162E03B
:100C600080E00E94470181EB91E00E94450162E033
:100C700086E01123A1F00E94470189E991E00E94DA
:100C8000450162E089E00E944701CE010E945901BE
:100C900062E08BE00E9447018CE991E004C00E9471
:100CA00047018DEA91E0DF91CF911F910C944501AE
:100CB000CF92DF92EF92FF926B017C0160E080E0C7
:100CC0000E94470188EC91E00E94450162E080E0CB
:100CD0000E94470188ED91E00E94450162E084E0B6
:100CE0000E94470142E0C701B601FF90EF90DF90FC
:100CF000CF900C948201CF92DF92EF92FF926B0122
:100D00007C0160E081E00E9447018DED91E00E944E
:100D1000450162E081E00E94470188E191E00E9484
:100D2000450162E084E00E94470142E0C701B6014C
:100D3000FF90EF90DF90CF900C948201789484B56F
:100D4000826084BD84B5816084BD85B5826085BDC7
:100D500085B5816085BD80916E00816080936E0055
:100D60001092810080918100826080938100809147
:100D700081008160809381008091800081608093F8
:100D800080008091B10084608093B1008091B000B8
:100D900081608093B00080917A00846080937A00B3
:100DA00080917A00826080937A0080917A008160DD
:100DB00080937A0080917A00806880937A00109204
:100DC000C10062E082E00E94AE0262E081E00E9427
:100DD000AE0262E080E00E94AE0262E083E00E9428
:100DE000AE0261E089E00E94AE0261E08AE00E940A
:100DF000AE0261E08DE00E94AE0282E00E94EA0253
:100E000080911502982F9460909315028C600E9437
:100E100037010E943D0182E694E0909301018093A6
:100E2000000180916900836080936900E89A65E021
:100E3000262E312C71E4472E512C612C712CC7E0E9
:100E4000D0E001E010E061E08DE00E947F0252E31B
:100E5000E52EF12C20E420937C0080917A008064C0
:100E600080937A0080917A0086FDFCCF60917800B3
:100E70008091790070E0782B072E000C880B990B7D
:100E80000E948F1020E030E040EA50E40E944411BC
:100E900020E030EC4FE754E40E94E50F2AE037ED04
:100EA00043E25CE30E94E50F2091010230910202CF
:100EB00040910302509104020E94740F609301025A
:100EC000709302028093030290930402E1E0EE1A11
:100ED000F10809F0BFCF20E030E048E452E40E947E
:100EE000E50F6B017C016093010270930202809315
:100EF000030290930402E091FF01F0910002EA30B6
:100F0000F10508F06FC7EC5CFF4F0C94B6110E941E
:100F1000C5036093FB017093FC018093FD019093E6
:100F2000FE018090F7019090F801A090F901B09037
:100F3000FA01DC01CB0188199909AA09BB09883C8F
:100F40009105A105B10508F46CC08090080190904E
:100F50000901A0900A01B0900B0160E080E00E94BE
:100F6000470188E191E00E94450160E084E00E9431
:100F7000470142E0C501B4010E94820120E030E057
:100F800048EC52E4C501B4010E94E50F20E030E0D6
:100F900040E85FE30E943F1160E087FD02C08AE005
:100FA00001C088E00E9447018DE191E00E94450167
:100FB00062E080E00E9447018FE191E00E944501DC
:100FC00062E084E00E94470142E0C701B6010E944E
:100FD000820162E088E00E94470120E030E048ECB6
:100FE00052E4C701B6010E94E50F20E030E040E87E
:100FF0005FE30E943F1162E087FD02C08AE001C00A
:1010000088E00E9447018DE191E00E9445010E9425
:10101000C5036093F7017093F8018093F9019093F1
:10102000FA018091EC019091ED01892B09F4DAC667
:10103000609108017091090180910A0190910B0162
:101040000E947B061092ED011092EC0110930002B9
:101050000093FF01C7C60E94C5036093FB01709314
:10106000FC018093FD019093FE01C090F701D090A8
:10107000F801E090F901F090FA01DC01CB018C1944
:101080009D09AE09BF0984369105A105B105A0F0FF
:10109000609108017091090180910A0190910B0102
:1010A0000E947B060E94C5036093F7017093F801CC
:1010B0008093F9019093FA0181E00E945602892BF6
:1010C000F1F10E94C5036B017C016093FB017093F9
:1010D000FC018093FD019093FE0181E00E94560285
:1010E0000197D9F30E94C5036093F7017093F8014B
:1010F0008093F9019093FA01DC01CB018C199D09D1
:10110000AE09BF0984369105A105B105C0F020E004
:1011100030E040E05FE36091080170910901809147
:101120000A0190910B010E94740F60930801709363
:10113000090180930A0190930B010E947B0680E0D5
:101140000E945602892BF1F10E94C5036B017C01BC
:101150006093FB017093FC018093FD019093FE016D
:1011600080E00E9456020197D9F30E94C503609364
:10117000F7017093F8018093F9019093FA01DC0173
:10118000CB018C199D09AE09BF0984369105A105D3
:10119000B105C0F020E030E040E05FE3609108017D
:1011A0007091090180910A0190910B010E94730FC7
:1011B000609308017093090180930A0190930B01D9
:1011C0000E947B0683E00E945602892B51F00E9408
:1011D0004505109200021092FF011092ED0110924D
:1011E000EC018091EC019091ED01892B09F4FAC595
:1011F00082E090E06BC10E94C5036093FB01709395
:10120000FC018093FD019093FE01C090F701D09006
:10121000F801E090F901F090FA01DC01CB018C19A2
:101220009D09AE09BF0984369105A105B105A0F05D
:101230006091040170910501809106019091070170
:101240000E9458060E94C5036093F7017093F8014D
:101250008093F9019093FA0181E00E945602892B54
:10126000F1F10E94C5036B017C016093FB01709357
:10127000FC018093FD019093FE0181E00E945602E3
:101280000197D9F30E94C5036093F7017093F801A9
:101290008093F9019093FA01DC01CB018C199D092F
:1012A000AE09BF0984369105A105B105C0F020E063
:1012B00030E040E05FE360910401709105018091AE
:1012C0000601909107010E94740F609304017093CE
:1012D000050180930601909307010E94580680E063
:1012E0000E945602892BF1F10E94C5036B017C011B
:1012F0006093FB017093FC018093FD019093FE01CC
:1013000080E00E9456020197D9F30E94C5036093C2
:10131000F7017093F8018093F9019093FA01DC01D1
:10132000CB018C199D09AE09BF0984369105A10531
:10133000B105C0F020E030E040E05FE360910401DF
:101340007091050180910601909107010E94730F31
:101350006093040170930501809306019093070147
:101360000E94580683E00E945602892B51F00E9489
:101370004505109200021092FF011092ED011092AB
:10138000EC018091EC019091ED01892B09F42AC5C3
:101390000E94450588E090E099C00E94C5036093D3
:1013A000FB017093FC018093FD019093FE01C090BE
:1013B000F701D090F801E090F901F090FA01DC011A
:1013C000CB018C199D09AE09BF0984369105A10591
:1013D000B105A0F081E02091F5013091F601232BB9
:1013E00009F480E00E9465050E94C5036093F7013F
:1013F0007093F8018093F9019093FA0181E00E94C3
:101400005602892B49F01093F6010093F5010E94D2
:10141000450581E00E94650580E00E945602892B07
:1014200049F01092F6011092F5010E94450580E006
:101430000E94650583E00E945602892BE1F10E941B
:10144000C5036B017C016093FB017093FC018093E9
:10145000FD019093FE0183E00E945602892BD9F78B
:101460008091F7019091F801A091F901B091FA01F2
:101470008C199D09AE09BF09C297A105B105B8F045
:1014800060E083E00E947F020E9445058091F501A3
:101490009091F601892B39F0E3E0F0E0F09300023F
:1014A000E093FF0104C0109200021092FF0110921D
:1014B000ED011092EC018091EC019091ED01892BEE
:1014C00009F490C40E94450589E090E090930002E1
:1014D0008093FF0183C48091F401811145C0A7016D
:1014E0009601609108017091090180910A01909123
:1014F0000B010E94730F209104013091050140916E
:101500000601509107010E9444116B017C0120E00B
:1015100030E042E852E40E943F1118166CF020E0DF
:1015200030E0A901C701B6010E94E00F181654F07F
:10153000C12CD12C760106C0C12CD12C42E8E42E5E
:1015400042E4F42EC701B6010E9457109B01AC0182
:10155000A4E6B0E00E94370FA30192010E94180F89
:101560003093F3012093F2010E94C5036093FB01C5
:101570007093FC018093FD019093FE01C090F701F0
:10158000D090F801E090F901F090FA01DC01CB0174
:101590008C199D09AE09BF09883C9105A105B105CB
:1015A000C8F0E090F201F090F30189E00E94560249
:1015B00021E0892B09F420E0B701822F0E94220646
:1015C0000E94C5036093F7017093F8018093F901BD
:1015D0009093FA0181E00E945602892B49F081E044
:1015E0008093F4010E94450561E089E00E947F023A
:1015F00080E00E945602892BE1F081E08093F401A3
:101600000E94450560E081E00E947F0260E089E081
:101610000E947F02E090F201F090F30189E00E94C5
:10162000560221E0892B09F420E0B701822F0E94A5
:10163000220683E00E945602892B51F00E94450544
:10164000109200021092FF011092ED011092EC0135
:101650008091EC019091ED01892B09F4C3C389E0DD
:101660000E945602892B39F0E4E0F0E0F09300028A
:10167000E093FF01B1C3309200022092FF01ACC39E
:101680000E94C5036093FB017093FC018093FD01F0
:101690009093FE01C090F701D090F801E090F9011D
:1016A000F090FA01DC01CB018C199D09AE09BF094C
:1016B000883C9105A105B10580F08091F2019091DF
:1016C000F3010E94F6050E94C5036093F701709331
:1016D000F8018093F9019093FA0181E00E9456028B
:1016E000892BA1F181E08093F4010E94C5036B0175
:1016F0007C016093FB017093FC018093FD0190934A
:10170000FE0181E00E9456020197D9F30E94C503B1
:101710006093F7017093F8018093F9019093FA01B7
:10172000DC01CB018C199D09AE09BF0984369105F6
:10173000A105B10558F08091F2019091F301019655
:101740009093F3018093F2010E94F60580E00E94DD
:101750005602892BD1F181E08093F4010E94C503E8
:101760006B017C016093FB017093FC018093FD0190
:101770009093FE0180E00E9456020197D9F30E94E7
:10178000C5036093F7017093F8018093F90190937A
:10179000FA01DC01CB018C199D09AE09BF09843621
:1017A0009105A105B10588F08091F2019091F301B6
:1017B000009729F001979093F3018093F2018091B3
:1017C000F2019091F3010E94F60583E00E94560217
:1017D000892B61F01092F4010E94450510920002DD
:1017E0001092FF011092ED011092EC018091EC013A
:1017F0009091ED01892B09F4F5C2309200022092FC
:10180000FF0168C281E02091F0013091F101232BAA
:1018100009F480E00E944D0581E00E945602892B68
:1018200049F00E9445051093F1010093F00181E019
:101830000E944D0580E00E945602892B49F00E94CB
:1018400045051092F1011092F00180E00E944D05D3
:1018500083E00E945602892B51F00E944505309288
:1018600000022092FF011092ED011092EC01809194
:10187000EC019091ED01892B09F4B4C20E94450559
:10188000D0930002C093FF01A9C28091F40181119D
:1018900012C10E94C5036093FB017093FC01809309
:1018A000FD019093FE018090F7019090F801A090C7
:1018B000F901B090FA01DC01CB0188199909AA0954
:1018C000BB09883C9105A105B10508F4F4C020913D
:1018D00008013091090140910A0150910B01C701A3
:1018E000B6010E94730F20E030E040E251E40E9414
:1018F00044116B017C0120E030E04FE753E40E948B
:101900003F1118168CF020E030E04CE852E4C7019B
:10191000B6010E94E00F87FF0DC0C12CD12C3CE81E
:10192000E32E32E4F32E06C0C12CD12C2FE7E22E99
:1019300023E4F22EC701B6010E9457104B015C014F
:101940007B0161E08AE00E94AE028114910411F4EF
:1019500060E005C0FFEF8F16910429F461E08AE092
:101960000E947F0244C0ECECF0E084918330F9F0F7
:1019700048F48130B9F08230A1F584B5806284BD2D
:1019800088BC35C08730E9F0883019F1843049F5DA
:101990008091800080628093800090928B00809282
:1019A0008A0025C084B5806884BD87BC20C0809132
:1019B00080008068809380009092890080928800E7
:1019C00016C08091B00080688093B0008092B30010
:1019D0000EC08091B00080628093B0008092B4000D
:1019E00006C0F0E8EF16F1040CF0B8CFB1CF2091AB
:1019F00008013091090140910A0150910B01609159
:101A000001027091020280910302909104020E94EF
:101A1000730F20E030E040E251E40E9444116B017A
:101A20007C0120E030E04FE753E40E943F1118169C
:101A30008CF020E030E04CE852E4C701B6010E948F
:101A4000E00F87FF0DC0C12CD12C9CE8E92E92E459
:101A5000F92E06C0C12CD12C8FE7E82E83E4F82E96
:101A6000C701B6010E9457109B01AC01A4E6B0E08B
:101A70000E94370F2FEF30E040E050E00E94180F37
:101A800069017A013093EF012093EE018AE00E9410
:101A9000560221E0892B09F420E0B601822F0E9432
:101AA000A9050E94C5036093F7017093F801809324
:101AB000F9019093FA0181E00E945602892BC1F04E
:101AC00081E08093F4010E94450561E08AE00E9474
:101AD0007F02E090EE01F090EF018AE00E94560252
:101AE00021E0892B09F420E0B701822F0E94A9058B
:101AF00080E00E945602892BC1F081E08093F401BE
:101B00000E94450560E08AE00E947F02E090EE01BD
:101B1000F090EF018AE00E94560221E0892B09F43F
:101B200020E0B701822F0E94A90583E00E9456029F
:101B3000892B61F01092F4010E9445051092000279
:101B40001092FF011092ED011092EC018091EC01D6
:101B50009091ED01892B09F445C18AE00E9456025B
:101B6000892B09F4B3C086E090E090930002809343
:101B7000FF01B0C00E94C5036093FB017093FC019C
:101B80008093FD019093FE01C090F701D090F80181
:101B9000E090F901F090FA01DC01CB018C199D096C
:101BA000AE09BF0984369105A105B10580F0809189
:101BB000EE019091EF010E947D050E94C5036093A4
:101BC000F7017093F8018093F9019093FA0181E095
:101BD0000E945602892BA1F181E08093F4010E94BA
:101BE000C5036B017C016093FB017093FC01809342
:101BF000FD019093FE0181E00E9456020197D9F306
:101C00000E94C5036093F7017093F8018093F90176
:101C10009093FA01DC01CB018C199D09AE09BF0933
:101C200084369105A105B10558F08091EE0190919F
:101C3000EF0101969093EF018093EE010E947D05E4
:101C400080E00E945602892B49F181E08093F401E3
:101C50000E94C5036B017C016093FB017093FC0142
:101C60008093FD019093FE0180E00E94560201974F
:101C7000D9F30E94C5036093F7017093F801809334
:101C8000F9019093FA01DC01CB018C199D09AE0991
:101C9000BF0984369105A105B105F8F483E00E94DF
:101CA0005602892B61F01092F4010E9445051092B2
:101CB00000021092FF011092ED011092EC01809150
:101CC000EC019091ED01892B09F48CC0D0930002B6
:101CD000C093FF011092F4017FC08091EE019091BA
:101CE000EF01009729F001979093EF018093EE01A7
:101CF0008091EE019091EF010E947D05CFCF0E946F
:101D0000C5036093FB017093FC018093FD019093E8
:101D1000FE01C090F701D090F801E090F901F09039
:101D2000FA01DC01CB018C199D09AE09BF09883C81
:101D30009105A105B10528F18DE00E9456027C01B4
:101D400060E081E00E94470184E291E00E94450149
:101D500062E082E0EF2829F00E94470183E391E0EE
:101D600004C00E9447018AE391E00E9445010E945D
:101D7000C5036093F7017093F8018093F901909384
:101D8000FA0181E00E945602892B21F061E08DE08A
:101D90000E947F0280E00E945602892B21F060E0C1
:101DA0008DE00E947F0283E00E945602892B51F051
:101DB0000E944505109200021092FF011092ED0161
:101DC0001092EC018091EC019091ED01892B51F082
:101DD000109200021092FF010E9445051092ED0141
:101DE0001092EC0180E090E0892B09F42CC80E944D
:101DF000000027C8E5E0F2E01382128280E191E062
:101E0000918380838CE084838FEF85838BE086834E
:101E100084E0878385E0808786E0818787E082870A
:101E20001386148615861686178681E00C94EA02BE
:101E3000052E97FB1EF400940E942F0F57FD07D02C
:101E40000E94420F07FC03D04EF40C942F0F5095C4
:101E50004095309521953F4F4F4F5F4F0895909596
:101E60008095709561957F4F8F4F9F4F08950E9489
:101E7000640FA59F900DB49F900DA49F800D911DA0
:101E800011240895A1E21A2EAA1BBB1BFD010DC04F
:101E9000AA1FBB1FEE1FFF1FA217B307E407F5071A
:101EA00020F0A21BB30BE40BF50B661F771F881FF6
:101EB000991F1A9469F760957095809590959B018C
:101EC000AC01BD01CF010895A29FB001B39FC00135
:101ED000A39F700D811D1124911DB29F700D811D56
:101EE0001124911D08955058BB27AA270E948B0FDB
:101EF0000C9405110E94F71038F00E94FE1020F09B
:101F000039F49F3F19F426F40C94F4100EF4E09584
:101F1000E7FB0C94EE10E92F0E94161158F3BA1744
:101F2000620773078407950720F079F4A6F50C94EF
:101F300038110EF4E0950B2EBA2FA02D0B01B9012C
:101F400090010C01CA01A0011124FF27591B99F02F
:101F5000593F50F4503E68F11A16F040A22F232F3B
:101F6000342F4427585FF3CF469537952795A7958B
:101F7000F0405395C9F77EF41F16BA0B620B730B32
:101F8000840BBAF09150A1F0FF0FBB1F661F771FA3
:101F9000881FC2F70EC0BA0F621F731F841F48F458
:101FA000879577956795B795F7959E3F08F0B0CFE1
:101FB0009395880F08F09927EE0F979587950895C8
:101FC0000E94CA1008F481E008950E94F90F0C9451
:101FD00005110E94FE1058F00E94F71040F029F4FD
:101FE0005F3F29F00C94EE1051110C9439110C94B0
:101FF000F4100E94161168F39923B1F3552391F35D
:10200000951B550BBB27AA2762177307840738F067
:102010009F5F5F4F220F331F441FAA1FA9F335D0C4
:102020000E2E3AF0E0E832D091505040E695001C78
:10203000CAF72BD0FE2F29D0660F771F881FBB1F32
:10204000261737074807AB07B0E809F0BB0B802D10
:10205000BF01FF2793585F4F3AF09E3F510578F03C
:102060000C94EE100C9439115F3FE4F3983ED4F3D6
:10207000869577956795B795F7959F5FC9F7880F10
:10208000911D9695879597F90895E1E0660F771F62
:10209000881FBB1F621773078407BA0720F0621BF3
:1020A000730B840BBA0BEE1F88F7E09508950E941E
:1020B0005E106894B1110C94391108950E941E119C
:1020C00088F09F5798F0B92F9927B751B0F0E1F0F9
:1020D000660F771F881F991F1AF0BA95C9F714C0A9
:1020E000B13091F00E943811B1E008950C9438118C
:1020F000672F782F8827B85F39F0B93FCCF38695E2
:1021000077956795B395D9F73EF49095809570953E
:1021100061957F4F8F4F9F4F0895E89409C097FBBB
:102120003EF490958095709561957F4F8F4F9F4FAE
:102130009923A9F0F92F96E9BB279395F6958795F2
:1021400077956795B795F111F8CFFAF4BB0F11F4B5
:1021500060FF1BC06F5F7F4F8F4F9F4F16C088235C
:1021600011F096E911C0772321F09EE8872F762F92
:1021700005C0662371F096E8862F70E060E02AF0D3
:102180009A95660F771F881FDAF7880F96958795BF
:1021900097F90895990F0008550FAA0BE0E8FEEF94
:1021A00016161706E807F907C0F012161306E4071B
:1021B000F50798F0621B730B840B950B39F40A2614
:1021C00061F0232B242B252B21F408950A2609F4F2
:1021D000A140A6958FEF811D811D089597F99F67F6
:1021E00080E870E060E008959FEF80EC089500249F
:1021F0000A941616170618060906089500240A946C
:1022000012161306140605060895092E0394000CF1
:1022100011F4882352F0BB0F40F4BF2B11F460FF80
:1022200004C06F5F7F4F8F4F9F4F089557FD9058A9
:10223000440F551F59F05F3F71F04795880F97FB8A
:10224000991F61F09F3F79F0879508951216130644
:102250001406551FF2CF4695F1DF08C01616170673
:102260001806991FF1CF86957105610508940895A8
:10227000E894BB2766277727CB0197F908950E943A
:10228000CA1008F48FEF08950E9457110C9405119D
:102290000E94F71038F00E94FE1020F0952311F0F4
:1022A0000C94EE100C94F41011240C9439110E942B
:1022B000161170F3959FC1F3950F50E0551F629F63
:1022C000F001729FBB27F00DB11D639FAA27F00D8F
:1022D000B11DAA1F649F6627B00DA11D661F829FB6
:1022E0002227B00DA11D621F739FB00DA11D621F9B
:1022F000839FA00D611D221F749F3327A00D611DB8
:10230000231F849F600D211D822F762F6A2F112499
:102310009F5750409AF0F1F088234AF0EE0FFF1FCC
:10232000BB1F661F771F881F91505040A9F79E3F23
:10233000510580F00C94EE100C9439115F3FE4F3DA
:10234000983ED4F3869577956795B795F795E79579
:102350009F5FC1F7FE2B880F911D9695879597F982
:1023600008950E94CA10880B990B0895EE0FFF1F65
:102370000590F491E02D099481E090E0F8940C949C
:06238000C111F894FFCF2B
:102386001B041B04000000400000A04100000000E8
:102396003F051C044704460453503A2000430050AE
:1023A600563A2000447269766572205374617475DA
:1023B600732000456E61626C650044697361626CEE
:1023C60065006E616E00696E66006F766600464156
:1023D6004E204D616E75616C004D616E75616C20AD
:1023E6002020204F4E20004D616E75616C2020200C
:1023F600204F4646200048454154204D616E756188
:102406006C004D616E75616C204D6F6465204F5593
:1024160054200046414E3A20004F4E0025004D61A3
:102426006E75616C204D6F6465205354004F4646AF
:1024360000486561743A20004D616E75616C204DEF
:102446006F646520535420004E65772050726F707C
:102456002E204761696E20004B703A20004E65774A
:0C2466002053657420506F696E742000D4
:00000001FF
