:100000000C946C000C94A1050C947A050C9494004B
:100010000C9494000C9494000C9494000C94940010
:100020000C9494000C9494000C9494000C94940000
:100030000C9494000C9494000C9494000C949400F0
:100040000C94FF070C9494000C94EE050C94C805D6
:100050000C9494000C9494000C9494000C949400D0
:100060000C9494000C949400240CF80CD70D310FD0
:10007000BB0FFA1090115412B50E81100000000051
:10008000240027002A0000000000250028002B0083
:1000900000000000230026002900040404040404D6
:1000A0000404020202020202030303030303010227
:1000B00004081020408001020408102001020408F6
:1000C00010200000000800020100000304070000E7
:1000D000000000000000EC1211241FBECFEFD8E09A
:1000E000DEBFCDBF12E0A0E0B1E0E0EDFBE202C078
:1000F00005900D92AC30B107D9F722E0ACE0B2E048
:1001000001C01D92AC3EB207E1F710E0CCE6D0E0B2
:1001100004C02197FE010E94D415CB36D107C9F740
:100120000E9449080C94E6150C940000833081F07D
:1001300028F4813099F08230A1F008958730A9F039
:100140008830B9F08430D1F4809180008F7D03C075
:10015000809180008F7780938000089584B58F7799
:1001600002C084B58F7D84BD08958091B0008F77E3
:1001700003C08091B0008F7D8093B00008953FB799
:10018000F8948091310290913202A0913302B091A3
:10019000340226B5A89B05C02F3F19F00196A11D7A
:1001A000B11D3FBFBA2FA92F982F8827820F911D0D
:1001B000A11DB11DBC01CD0142E0660F771F881F54
:1001C000991F4A95D1F70895009769F0FC010190B5
:1001D0000020E9F73197AF01481B590BBC0182EDB4
:1001E00092E00C94480480E090E008958F929F92F2
:1001F000AF92BF920F931F93CF93DF93CDB7DEB72C
:10020000A1970FB6F894DEBF0FBECDBF19A2423042
:1002100008F44AE08E010F5D1F4F842E912CA12C13
:10022000B12CA50194010E946013E62FB901CA0107
:1002300001501109EA3014F4E05D01C0E95CD80115
:10024000EC93232B242B252B61F7C8010E94E4009B
:10025000A1960FB6F894DEBF0FBECDBFDF91CF9150
:100260001F910F91BF90AF909F908F90089540E0A5
:10027000682F82ED92E00C944D0681E00E943701D8
:100280008BE39FE10197F1F70895643008F063E094
:100290009091E502691710F06FEF690FE62FF0E01B
:1002A000EE52FD4F9489890F80680C9437010C94AD
:1002B000E400CF92DF92EF92FF926C01990FEE086B
:1002C000FF08F7FE16C041E06DE282ED92E00E9469
:1002D0004D0666277727CB016C197D098E099F098A
:1002E0004AE00E94F6000196FF90EF90DF90CF90D9
:1002F00008954AE0C701B601FF90EF90DF90CF90DC
:100300000C94F6008F929F92AF92BF92CF92DF92A1
:10031000EF92FF920F931F93CF93DF936B017C01BA
:10032000142F9B01AC010E94CF15882319F089E698
:1003300091E027C046015701E894B7F82FEF3FEF4F
:100340004FE75FE7C501B4010E94CF1581110DC0D1
:100350002FEF3FEF4FE75FE7C501B4010E94FE13A7
:1003600018161CF48DE691E00CC02FEF3FEF4FE71D
:100370005FE4C701B6010E945D15181684F481E799
:1003800091E0DF91CF911F910F91FF90EF90DF905F
:10039000CF90BF90AF909F908F900C94E4002FEF80
:1003A0003FEF4FE75FECC701B6010E94FE1387FDE8
:1003B000E6CF20E030E0A901C701B6010E94FE139C
:1003C00087FF0DC041E06DE282ED92E00E944D0694
:1003D000F7FAF094F7F8F094C1E0D0E002C0C0E082
:1003E000D0E000E060E070E080E09FE3101741F0B3
:1003F00020E030E040E251E40E9403140F5FF6CFAA
:10040000A70196010E9492136B017C010E947C144B
:100410004B015C014AE00E94F600C80FD91F11236E
:10042000B9F1C501B4010E94AB149B01AC01C70135
:10043000B6010E9491136B017C0141E06EE282EDF6
:1004400092E00E944D06219620E030E040E251E427
:10045000C701B6010E9462154B015C010E947C1429
:100460006B01E12CF12C4AE0C701B6010E94F600B5
:10047000C80FD91FC701B6010E94AB149B01AC0184
:10048000C501B4010E9491136B017C011150E1F68A
:10049000CE01DF91CF911F910F91FF90EF90DF90F0
:1004A000CF90BF90AF909F908F900895CF93DF93A0
:1004B000282F30E0F901EE53FF4F8491F901E25506
:1004C000FF4FD491F901E656FF4FC491CC2391F030
:1004D00081110E949600EC2FF0E0EE0FFF1FE05715
:1004E000FF4FA591B491EC91ED2381E090E021F4D0
:1004F00080E002C080E090E0DF91CF9108951F93EB
:10050000CF93DF93282F30E0F901EE53FF4F849112
:10051000F901E255FF4FD491F901E656FF4FC4911E
:10052000CC23C1F0162F81110E949600EC2FF0E031
:10053000EE0FFF1FEA57FF4FA591B4919FB7F894B4
:10054000111104C08C91D095D82302C0EC91DE2B00
:10055000DC939FBFDF91CF911F910895CF93DF93DD
:1005600090E0FC01E255FF4F2491FC01E656FF4F5D
:100570008491882361F190E0880F991FFC01E45871
:10058000FF4FC591D491FC01EA57FF4FA591B4915B
:10059000611109C09FB7F8948881209582238883D0
:1005A000EC912E230BC0623061F49FB7F8948881E0
:1005B000322F309583238883EC912E2B2C939FBF71
:1005C00006C08FB7F894E8812E2B28838FBFDF9168
:1005D000CF910895CF93DF93823028F09091E1027C
:1005E00098609093E1028093E5021092E60280E425
:1005F0008093E70280E18093E80280E58093E9023E
:1006000061E08091D6020E94AE028091D7028F3FB6
:1006100019F061E00E94AE0261E08091D8020E9470
:10062000AE02C2EDD2E09E01225D32408091E10235
:1006300084FD03C084E090E002C088E090E0219651
:10064000281739072CF461E08E810E94AE02EBCFAF
:100650008BE39DE00197F1F760E08091D6020E9464
:100660007F0260E08091D8020E947F028091D702D1
:100670008F3F19F060E00E947F028091E10284FDCB
:1006800020C063E082ED92E00E942006CBE4D6E435
:10069000CE010197F1F763E082ED92E00E9420061F
:1006A0002197F1F763E082ED92E00E94200683E556
:1006B00092E00197F1F762E082ED92E00E9420065D
:1006C00015C080620E9437018BE496E40197F1F730
:1006D0008091E10280620E94370183E592E00197F8
:1006E000F1F78091E10280620E9437018091E1027E
:1006F00080620E94370184E08093E2028CE00E94D5
:1007000037010E943D0182E08093E30286E0DF91A1
:10071000CF910C9437011F93CF93DF93182FEB01E8
:1007200061E00E94AE02209711F460E004C0CF3F68
:10073000D10539F461E0812FDF91CF911F910C94A5
:100740007F02E12FF0E0EE53FF4FE491E330F9F048
:1007500048F4E130B9F0E230A1F584B5806284BD9F
:10076000C8BD34C0E730E9F0E83019F1E43049F5AC
:1007700080918000806280938000D0938B00C09332
:100780008A0024C084B5806884BDC7BD1FC0809125
:100790008000806880938000D0938900C093880097
:1007A00015C08091B00080688093B000C093B30002
:1007B0000DC08091B00080628093B000C093B400FF
:1007C00005C0C038D1050CF0B5CFAFCFDF91CF91C8
:1007D0001F9108958E3008F08E508770806480934A
:1007E0007C0080917A00806480937A0080917A0006
:1007F00086FDFCCF809178002091790090E0922BCB
:1008000008958F929F92AF92BF92CF92DF92EF9214
:10081000FF926B017C010E94BF004B015C01C1147F
:10082000D104E104F104F1F00E94BF00DC01CB012E
:1008300088199909AA09BB09883E9340A105B10509
:1008400070F321E0C21AD108E108F10888EE880EA1
:1008500083E0981EA11CB11CC114D104E104F10471
:1008600019F7DDCFFF90EF90DF90CF90BF90AF9062
:100870009F908F9008952FB7F89460912D027091FA
:100880002E0280912F02909130022FBF089508957B
:10089000CF92DF92EF92FF920F931F93CF93DF934C
:1008A0006C017A018B01C0E0D0E0CE15DF0581F04C
:1008B000D8016D918D01D601ED91FC910190F081EF
:1008C000E02DC6010995892B11F02196EECF7E010E
:1008D000C701DF91CF911F910F91FF90EF90DF90B3
:1008E000CF900895FC01538D448D252F30E0842F47
:1008F00090E0821B930B541710F0CF960895019748
:100900000895FC01918D828D981761F0828DDF0131
:10091000A80FB11D5D968C91928D9F5F9F73928FF2
:1009200090E008958FEF9FEF0895FC01918D828DE7
:10093000981731F0828DE80FF11D858D90E00895B4
:100940008FEF9FEF0895FC01918D228D892F90E00C
:10095000805C9F4F821B91098F739927089585E3CF
:1009600092E00E94A30421E0892B09F420E0822F69
:100970000895FC01848DDF01A80FB11DA35ABF4F5C
:100980002C91848D90E001968F739927848FA6898E
:10099000B7892C93A089B1898C91837080648C93E2
:1009A000938D848D981306C00288F389E02D808191
:1009B0008F7D80830895EF92FF920F931F93CF93C3
:1009C000DF93EC0181E0888F9B8D8C8D981305C09F
:1009D000E889F989808185FD26C0F62E0B8D10E00F
:1009E0000F5F1F4F0F731127E02E8C8DE8120CC084
:1009F0000FB607FCFACFE889F989808185FFF5CF2A
:100A0000CE010E94B904F1CF8B8DFE01E80FF11DDC
:100A1000E35AFF4FF0829FB7F8940B8FEA89FB8966
:100A2000808180620AC09FB7F894EE89FF89608355
:100A3000E889F98980818370806480839FBF81E029
:100A400090E0DF91CF911F910F91FF90EF9008956B
:100A5000CF93DF93EC01888D8823C9F0EA89FB8965
:100A6000808185FD05C0A889B9898C9186FD0FC05C
:100A70000FB607FCF5CF808185FFF2CFA889B98931
:100A80008C9185FFEDCFCE010E94B904E7CFDF91B5
:100A9000CF91089580E090E0892B29F00E94AF0467
:100AA00081110C9400000895089580E090E008956D
:100AB0000E94E115CF93DF93EC0160E08E810E94EC
:100AC0007F0261E08E810E947F0260E08E810E9441
:100AD0007F028BE891E00197F1F7DF91CF910895C4
:100AE0000E943D0181E090E090930D0280930C0202
:100AF0000C943D011F920F920FB60F9211242F9369
:100B00003F934F935F936F937F938F939F93AF9395
:100B1000BF93EF93FF93E0910201F09103010995D8
:100B2000FF91EF91BF91AF919F918F917F916F91C5
:100B30005F914F913F912F910F900FBE0F901F909B
:100B400018951F920F920FB60F9211242F933F9377
:100B50004F935F936F937F938F939F93AF93BF93C5
:100B6000EF93FF93E0910001F09101010995FF914E
:100B7000EF91BF91AF919F918F917F916F915F9115
:100B80004F913F912F910F900FBE0F901F9018958E
:100B90001F920F920FB60F9211242F933F934F93F2
:100BA0005F936F937F938F939F93AF93BF93EF93D5
:100BB000FF9385E392E00E94B904FF91EF91BF910A
:100BC000AF919F918F917F916F915F914F913F91E5
:100BD0002F910F900FBE0F901F9018951F920F929C
:100BE0000FB60F9211242F938F939F93EF93FF9340
:100BF000E0914502F09146028081E0914B02F09134
:100C00004C0282FD12C0908180914E028F5F8F73E3
:100C100020914F02821751F0E0914E02F0E0EB5C20
:100C2000FD4F958F80934E0201C08081FF91EF911F
:100C30009F918F912F910F900FBE0F901F9018953D
:100C4000CF92DF92EF92FF920F931F93CF93DF9398
:100C50006C017C0187E0E80EF11CC0E0D0E0062FBB
:100C600010E0B8010C2E02C0759567950A94E2F762
:100C70006170F70181917F010E947F022196C4304B
:100C8000D10579F7C601DF91CF911F910F91FF90A8
:100C9000EF90DF90CF900C945A05CF92DF92EF92B5
:100CA000FF920F931F93CF93DF93EC01F62E642FE7
:100CB0008C810E947F028D818F3F19F060E00E943D
:100CC0007F028F850F2D10E084FF25C06E0187E025
:100CD000C80ED11CE12CF12CB8010E2C02C0759568
:100CE00067950A94E2F76170F60181916F010E94A5
:100CF0007F02FFEFEF1AFF0A88E0E816F10461F7C0
:100D0000CE01DF91CF911F910F91FF90EF90DF9077
:100D1000CF900C945A05B80184E0759567958A9533
:100D2000E1F7CE010E9420066F2DCE01DF91CF9119
:100D30001F910F91FF90EF90DF90CF900C942006C1
:100D400041E00E944D0681E090E0089564E670E085
:100D500080E090E00E9401040C943D01CF93C82FE5
:100D600060E081E00E94450185E791E00E94570123
:100D700062E080E00E944501CC2319F080E891E018
:100D800002C08EE891E0CF910C945701CF93C82F09
:100D900060E081E00E9445018DE991E00E945701E9
:100DA00062E080E00E944501CC2319F080E891E0E8
:100DB00002C08EE891E0CF910C945701CF93DF935E
:100DC000EC0160E081E00E94450189EA91E00E9427
:100DD000570162E080E00E9445018AEB91E00E94A9
:100DE000570162E086E00E94450186E691E00E949C
:100DF000570162E089E00E944501CE010E9459013D
:100E000062E08BE00E94450180EC91E0DF91CF91A0
:100E10000C9457011F93CF93DF93182FEB0160E0E1
:100E200081E00E94450182EC91E00E94570162E05E
:100E300080E00E9445018AEB91E00E94570162E048
:100E4000112359F184E00E94450186E691E00E9459
:100E5000570162E087E00E944501CE010E945901DE
:100E600062E0C436D10554F08AE00E9445018091C9
:100E7000EA02882379F01092EA020AC089E00E940F
:100E800045018091EA02811105C081E08093EA0268
:100E90000E94A60680EC91E005C088E00E94450112
:100EA00084E491E0DF91CF911F910C945701CF938F
:100EB000DF93EC0160E081E00E94450189EA91E066
:100EC0000E94570162E080E00E94450181ED91E0BF
:100ED0000E94570162E086E00E94450186E691E0AB
:100EE0000E94570162E089E00E944501CE010E9404
:100EF000590162E08BE00E94450180EC91E0DF91B6
:100F0000CF910C9457011F93CF93DF93182FEB01D0
:100F100060E081E00E94450188ED91E00E94570168
:100F200062E080E00E94450181ED91E00E9457015E
:100F300062E086E01123A1F00E94450186E691E07F
:100F40000E94570162E089E00E944501CE010E94A3
:100F5000590162E08BE00E94450180EC91E004C001
:100F60000E94450184E491E0DF91CF911F910C94A0
:100F70005701CF92DF92EF92FF926B017C0160E00C
:100F800080E00E94450188EE91E00E94570162E0F6
:100F900080E00E94450188EF91E00E94570162E0E5
:100FA00084E00E94450142E0C701B601FF90EF9046
:100FB000DF90CF900C948201CF92DF92EF92FF925C
:100FC0006B017C0160E081E00E9445018DEF91E0C2
:100FD0000E94570162E081E00E9445018AE291E0AF
:100FE0000E94570162E084E00E94450142E0C7018F
:100FF000B601FF90EF90DF90CF900C9482011F928A
:101000000F920FB60F9211242F933F938F939F93BC
:10101000AF93BF9380912D0290912E02A0912F0249
:10102000B09130023091EB0223E0230F2D3720F4F2
:101030000196A11DB11D05C026E8230F0296A11D32
:10104000B11D2093EB0280932D0290932E02A0936A
:101050002F02B09330028091310290913202A09120
:101060003302B09134020196A11DB11D809331026B
:1010700090933202A0933302B0933402BF91AF91A8
:101080009F918F913F912F910F900FBE0F901F90C6
:101090001895CF93DF9300D000D01F92CDB7DEB765
:1010A000789484B5826084BD84B5816084BD85B543
:1010B000826085BD85B5816085BD80916E0081604F
:1010C00080936E00109281008091810082608093F5
:1010D00081008091810081608093810080918000F7
:1010E0008160809380008091B10084608093B10022
:1010F0008091B00081608093B00080917A0084601C
:1011000080937A0080917A00826080937A00809147
:101110007A00816080937A0080917A008068809361
:101120007A001092C10085E392E00E942805E091C8
:101130004702F091480280818F7E8083E0914702D0
:10114000F09148028081877F8083E0914702F0918F
:10115000480280818F778083E0914702F0914802B6
:1011600080818F7D808380914F0280934E0260E06A
:1011700082E00E94AE0260E080E10E94AE0260E088
:1011800081E10E94AE0260E083E00E94AE0261E075
:1011900089E00E94AE0261E08AE00E94AE0261E056
:1011A0008DE00E94AE0261E088E00E94AE0261E044
:1011B0008FE00E94AE0261E08DE00E947F0261E05C
:1011C00088E00E947F028EE00E94EA03BC01990F32
:1011D000880B990B0E94AD1420E030E040EA50E407
:1011E0000E94621520E030EC4FE754E40E940314A3
:1011F0002AE037ED43E25CE30E9403142B013C013B
:101200006093290270932A0280932B0290932C0200
:101210008091080190910901A0910A01B0910B0100
:1012200089839A83AB83BC838090040190900501ED
:10123000A0900601B0900701A3019201BC01CD016D
:101240000E9491136B017C0120E030E040E450E407
:10125000C501B4010E9462159B01AC01C701B60132
:101260000E9462156B017C0120E030E042E852E40C
:101270000E945D1518166CF020E030E0A901C7014E
:10128000B6010E94FE13181654F0C12CD12C760121
:1012900006C0C12CD12C32E8E32E32E4F32EC70174
:1012A000B6010E9475149B01AC01A4E6B0E00E9457
:1012B000551321E430E040E050E00E9436133093B3
:1012C00019022093180229813A814B815C81C30164
:1012D000B2010E9491136B017C01A5019401C5012B
:1012E000B4010E9492139B01AC01C701B6010E9498
:1012F00062156B017C0120E030E04FE753E40E946F
:101300005D1518168CF020E030E040EA52E4C70189
:10131000B6010E94FE1387FF0DC0C12CD12C90EAAC
:10132000E92E92E4F92E06C0C12CD12C2FE7E22E33
:1013300023E4F22EC701B6010E9475149B01AC0193
:10134000A4E6B0E00E9455132FEF30E040E050E0FB
:101350000E94361330930F0220930E0282E00E9407
:10136000EA028091E202982F94609093E2028C60EE
:101370000E9437010E943D0180E795E090930101B2
:101380008093000180916900836080936900E89AEE
:1013900087E0282E312C01E010E0A2E3B0E0BA8310
:1013A000A9838EE00E94EA03BC01990F880B990B78
:1013B0000E94AD1420E030E040EA50E40E94621543
:1013C00020E030EC4FE754E40E9403142AE037EDAC
:1013D00043E25CE30E9403149B01AC01609129028B
:1013E00070912A0280912B0290912C020E949213FC
:1013F0006093290270932A0280932B0290932C020F
:1014000065E070E080E090E00E94010489819A81AB
:1014100001979A838983892B21F620E030E048E404
:1014200052E46091290270912A0280912B029091DE
:101430002C020E9403146093290270932A02809365
:101440002B0290932C029091280299830E943B04D6
:1014500060932002709321028093220290932302D2
:10146000C0902402D0902502E0902602F09027023E
:101470006C197D098E099F090E94AB1420E030E0B1
:101480004AEF54E40E945D1587FD10C061E08FE0D3
:101490000E947F020E943B04609324027093250205
:1014A00080932602909327020E94A6060E943B0486
:1014B0006093200270932102809322029093230272
:1014C000C0902402D0902502E0902602F0902702DE
:1014D000DC01CB018C199D09AE09BF09883C91053F
:1014E000A105B10538F0A981A11104C060E08FE029
:1014F0000E947F020E943B046093200270932102AD
:101500008093220290932302C0901C02D0901D026F
:10151000E0901E02F0901F02DC01CB018C199D09A6
:10152000AE09BF09CC97A105B10508F481C1B98105
:10153000B1117EC180911A0290911B029A83898316
:101540004090290250902A0260902B0270902C0249
:10155000C0900801D0900901E0900A01F0900B01C1
:101560008090040190900501A0900601B0900701C1
:10157000A7019601C301B2010E94FE13A981BA819D
:1015800087FF7AC0AB2B09F07EC061E08DE00E943E
:101590007F02A3019201C701B6010E9491132B01A2
:1015A0003C0120E030E040E450E4C501B4010E9479
:1015B00062159B01AC01C301B2010E9462153B019F
:1015C0008D83998320E030E042E852E40E945D156B
:1015D00018167CF020E030E0A901B3018D819981DB
:1015E0000E94FE13181654F4562D472D3D81298173
:1015F00009C050E040E032E822E404C050E040E09E
:1016000030E020E0652F742F832F922F0E947514F5
:101610009B01AC01A4E6B0E00E94551321E430E048
:1016200040E050E00E9436133093190220931802D4
:1016300020E030E042E852E4B3018D8199810E94BC
:101640005D1518167CF020E030E0A901B3018D8112
:1016500099810E94FE1318165CF0612C712C1D827A
:10166000198206C0612C712CB2E8BD8382E48983A3
:10167000B3018D81998119C0AB2B29F460E08DE015
:101680000E947F0217C0A0911802B09119022FEF9B
:1016900030E00E94DA1524E630E040E050E00E949D
:1016A0003613CA01B9010E94AD140E94751489E075
:1016B0000E948B0380911602909117029A8389836E
:1016C0004090290250902A0260902B0270902C02C8
:1016D000A3019201C701B6010E94FE1387FF7EC0DD
:1016E000A981BA81AB2B09F082C061E088E00E9439
:1016F0007F02A7019601C301B2010E9491136B0101
:101700007C01A5019401C501B4010E9492139B01C3
:10171000AC01C701B6010E9462157B018D839983DC
:1017200020E030E04FE753E40E945D15181684F086
:1017300020E030E040EA52E4B7018D8199810E94B7
:10174000FE1387FD0AC05E2D4F2D3D81298109C002
:1017500050E040E03FE723E404C050E040E030EADE
:1017600022E4652F742F832F922F0E9475149B0102
:10177000AC01A4E6B0E00E9455132FEF30E040E04A
:1017800050E00E943613309319022093180220E093
:1017900030E04FE753E4B7018D8199810E945D15D8
:1017A000181694F020E030E040EA52E4B7018D8151
:1017B00099810E94FE1387FF0DC0E12CF12C90EA65
:1017C0009D83A2E4A98306C0E12CF12CBFE7BD8371
:1017D00083E48983B7018D8199811BC089819A81B6
:1017E000892B29F460E088E00E947F0217C0A09155
:1017F0001802B09119022FEF30E00E94DA1524E6AA
:1018000030E040E050E00E943613CA01B9010E9466
:10181000AD140E9475148AE00E948B030E943B0461
:1018200060931C0270931D0280931E0290931F020E
:10183000E0911402F0911502EA30F10508F0C8C6F3
:10184000EC5CFF4F0C94D4150E943B046093200283
:10185000709321028093220290932302C090100281
:10186000D0901102E0901202F0901302DC01CB0143
:101870008C199D09AE09BF09CC97A105B10508F4E3
:101880009FC088E00E9456027C018DE00E945602B3
:101890006C018090290290902A02A0902B02B090B7
:1018A0002C02409008015090090160900A0170904C
:1018B0000B0160E080E00E9445018AE291E00E9415
:1018C000570160E084E00E94450142E0C301B2019B
:1018D0000E94820120E030E048EC52E4C301B201F2
:1018E0000E94031420E030E040E85FE30E945D15B1
:1018F00060E087FD02C08AE001C088E00E944501E7
:101900008FE291E00E94570162E080E00E94450171
:1019100081E391E00E94570162E084E00E9445016A
:1019200042E0C501B4010E94820162E088E00E94A9
:10193000450120E030E048EC52E4C501B4010E94CA
:10194000031420E030E040E85FE30E945D1562E0B0
:1019500087FD02C08AE001C088E00E9445018FE255
:1019600091E00E945701CD2849F060E08AE0EF281D
:1019700091F40E94450186E391E011C0EF28C1F087
:1019800061E081E10E947F0260E08AE00E944501FF
:101990008BE391E004C00E9445018FE391E00E9437
:1019A000570162E08AE00E94450186E691E006C0A8
:1019B00062E08AE00E94450184E491E00E945701C0
:1019C00080910C0290910D02892B09F401C61092AE
:1019D0000D0210920C0260E080E10E947F0260E044
:1019E00081E10E947F021093150200931402F0C55A
:1019F0000E943B0460932002709321028093220294
:101A000090932302C0901002D0901102E090120235
:101A1000F0901302DC01CB018C199D09AE09BF09BE
:101A2000C297A105B10550F06091080170910901BC
:101A300080910A0190910B010E94DC0780E10E94D5
:101A40005602892B09F443C00E943B046093200294
:101A500070932102809322029093230280E10E94DE
:101A600056020197D9F30E943B04609310027093D1
:101A700011028093120290931302C0902002D09022
:101A80002102E0902202F0902302DC01CB018C19AC
:101A90009D09AE09BF090A97A105B105C0F020E074
:101AA00030E040E05FE360910801709109018091AE
:101AB0000A0190910B010E949213609308017093A8
:101AC000090180930A0190930B010E94DC0781E1D8
:101AD0000E945602892B09F443C00E943B04609384
:101AE000200270932102809322029093230281E1CD
:101AF0000E9456020197D9F30E943B0460931002A2
:101B0000709311028093120290931302C0902002EE
:101B1000D0902102E0902202F0902302DC01CB0160
:101B20008C199D09AE09BF090A97A105B105C0F03E
:101B300020E030E040E05FE360910801709109012E
:101B400080910A0190910B010E949113609308010A
:101B50007093090180930A0190930B010E94DC07A6
:101B600083E00E945602892B51F00E94A606109233
:101B700015021092140210920D0210920C02809124
:101B80000C0290910D02892B09F422C56091040189
:101B90007091050180910601909107010E94B9079B
:101BA000A2E0B0E0B0931502A09314020DC50E940C
:101BB0003B04609320027093210280932202909351
:101BC0002302C0901002D0901102E0901202F09017
:101BD0001302DC01CB018C199D09AE09BF098436C3
:101BE0009105A105B105A0F0609104017091050176
:101BF00080910601909107010E94B9070E943B0461
:101C0000609310027093110280931202909313025A
:101C100080E10E945602892B09F443C00E943B04D4
:101C200060932002709321028093220290932302FA
:101C300080E10E9456020197D9F30E943B04609311
:101C40001002709311028093120290931302C090BD
:101C50002002D0902102E0902202F0902302DC01C9
:101C6000CB018C199D09AE09BF090A97A105B105E1
:101C7000C0F020E030E040E05FE36091040170914B
:101C8000050180910601909107010E9492136093D3
:101C900004017093050180930601909307010E944F
:101CA000B90781E10E945602892B09F443C00E94C2
:101CB0003B04609320027093210280932202909350
:101CC000230281E10E9456020197D9F30E943B044E
:101CD000609310027093110280931202909313028A
:101CE000C0902002D0902102E0902202F0902302C6
:101CF000DC01CB018C199D09AE09BF090A97A1052A
:101D0000B105C0F020E030E040E05FE36091040105
:101D10007091050180910601909107010E94911335
:101D2000609304017093050180930601909307016D
:101D30000E94B90783E00E945602892B51F00E944D
:101D4000A606109215021092140210920D02109223
:101D50000C0280910C0290910D02892B09F438C479
:101D60000E94A60688E090E077C00E943B04609342
:101D70002002709321028093220290932302C0904C
:101D80001002D0901102E0901202F0901302DC01D8
:101D9000CB018C199D09AE09BF090A97A105B105B0
:101DA000A0F081E020911A0230911B02232B09F44C
:101DB00080E00E94C6060E943B046093100270936C
:101DC0001102809312029093130280E10E94560246
:101DD000892B49F010931B0200931A020E94A60659
:101DE00081E00E94C60681E10E945602892B49F0DB
:101DF00010921B0210921A020E94A60680E00E9416
:101E0000C60683E00E945602892BD9F060E083E089
:101E10000E947F020E94A60680911A0290911B02E6
:101E2000892B39F0A3E0B0E0B0931502A09314021F
:101E300004C0109215021092140210920D0210921A
:101E40000C0280910C0290910D02892B09F4C0C301
:101E50000E94A60689E090E09093150280931402F8
:101E6000B3C30E943B0460932002709321028093CD
:101E7000220290932302C0901002D0901102E090B1
:101E80001202F0901302DC01CB018C199D09AE09FE
:101E9000BF0984369105A105B105E0F0A0911802B3
:101EA000B0911902BA83A9838DE00E94560221E005
:101EB000892B09F420E069817A81822F0E948307AF
:101EC0000E943B04609310027093110280931202EF
:101ED0009093130280E10E945602892B31F00E94F8
:101EE000A60661E08DE00E947F0281E10E94560219
:101EF000892BE1F00E94A60660E080E10E947F024B
:101F000060E08DE00E947F0280911802909119029A
:101F10009A8389838DE00E94560221E0892B09F47F
:101F200020E069817A81822F0E94830783E00E94EA
:101F30005602892B51F00E94A606109215021092AB
:101F4000140210920D0210920C0280910C029091DA
:101F50000D02892B09F43CC38DE00E945602892BA7
:101F600019F0A4E0B0E0C8C085E090E090931502BD
:101F70008093140227C30E943B0460932002709355
:101F800021028093220290932302C0901002D090ED
:101F90001102E0901202F0901302DC01CB018C19C7
:101FA0009D09AE09BF0984369105A105B10580F0F0
:101FB00080911802909119020E9457070E943B04D9
:101FC0006093100270931102809312029093130297
:101FD00080E10E945602892BB1F10E943B0460937C
:101FE000200270932102809322029093230280E1C9
:101FF0000E9456020197D9F30E943B04609310029D
:10200000709311028093120290931302C0902002E9
:10201000D0902102E0902202F0902302DC01CB015B
:102020008C199D09AE09BF090A97A105B10558F0A1
:102030008091180290911902019690931902809351
:1020400018020E94570781E10E945602892BE1F194
:102050000E943B046093200270932102809322022D
:102060009093230281E10E9456020197D9F30E94C6
:102070003B046093100270931102809312029093BC
:102080001302C0902002D0902102E0902202F09032
:102090002302DC01CB018C199D09AE09BF090A9707
:1020A000A105B10588F0809118029091190200975E
:1020B00029F00197909319028093180280911802D9
:1020C000909119020E94570783E00E945602892BC3
:1020D00051F00E94A606109215021092140210925E
:1020E0000D0210920C0280910C0290910D02892B2E
:1020F00009F46EC2A9E0B0E0B0931502A0931402F7
:1021000061C20E943B04609320027093210280937D
:10211000220290932302C0901002D0901102E0900E
:102120001202F0901302DC01CB018C199D09AE095B
:10213000BF09883C9105A105B105A0F081E020917F
:10214000160230911702232B09F480E00E94AE069C
:102150000E943B046093100270931102809312025C
:102160009093130280E10E945602892B49F00E944D
:10217000A606109317020093160281E00E94AE0695
:1021800081E10E945602892B49F00E94A606109216
:1021900017021092160280E00E94AE0683E00E94B1
:1021A0005602892BC9F060E083E00E947F02809193
:1021B000160290911702892B39F085E090E09093F8
:1021C00015028093140204C010921502109214029A
:1021D00010920D0210920C0280910C0290910D024F
:1021E000892B09F4F5C10E94A606309215022092AF
:1021F0001402EAC10E943B04609320027093210202
:102200008093220290932302C0901002D09011027A
:10221000E0901202F0901302DC01CB018C199D09B1
:10222000AE09BF09883C9105A105B105E0F0A09178
:102230000E02B0910F02BA83A98388E00E94560271
:1022400021E0892B09F420E069817A81822F0E94A4
:102250000A070E943B04609310027093110280935E
:1022600012029093130280E10E945602892BC1F062
:102270000E94A60661E088E00E947F0280910E0223
:1022800090910F029A83898388E00E94560221E090
:10229000892B09F420E069817A81822F0E940A0744
:1022A00081E10E945602892BC1F00E94A60660E0DF
:1022B00088E00E947F02A0910E02B0910F02BA83C3
:1022C000A98388E00E94560221E0892B09F420E0CE
:1022D00069817A81822F0E940A0783E00E94560258
:1022E000892B71F060E083E00E947F020E94A606C5
:1022F000109215021092140210920D0210920C020C
:1023000080910C0290910D02892B09F461C188E043
:102310000E945602892B09F4C2C086E090E026CEC6
:102320000E943B046093200270932102809322025A
:1023300090932302C0901002D0901102E0901202FC
:10234000F0901302DC01CB018C199D09AE09BF0985
:1023500084369105A105B10580F080910E0290911F
:102360000F020E94DE060E943B04609310027093ED
:102370001102809312029093130280E10E94560290
:10238000892BB1F10E943B046093200270932102DB
:10239000809322029093230280E10E9456020197CB
:1023A000D9F30E943B046093100270931102809352
:1023B000120290931302C0902002D0902102E0906C
:1023C0002202F0902302DC01CB018C199D09AE0999
:1023D000BF090A97A105B10558F080910E029091AE
:1023E0000F02019690930F0280930E020E94DE0668
:1023F00081E10E945602892BE1F10E943B04609327
:10240000200270932102809322029093230281E1A3
:102410000E9456020197D9F30E943B046093100278
:10242000709311028093120290931302C0902002C5
:10243000D0902102E0902202F0902302DC01CB0137
:102440008C199D09AE09BF090A97A105B10588F04D
:1024500080910E0290910F02009729F001979093BE
:102460000F0280930E0280910E0290910F020E9443
:10247000DE0683E00E945602892B51F00E94A606D8
:10248000109215021092140210920D0210920C027A
:1024900080910C0290910D02892B09F499C0309221
:1024A0001502209214028EC00E943B046093200209
:1024B000709321028093220290932302C090100215
:1024C000D0901102E0901202F0901302DC01CB01D7
:1024D0008C199D09AE09BF09883C9105A105B1057C
:1024E000C8F188E00E9456029A8389838DE00E9499
:1024F00056027C0160E081E00E94450188E491E0A1
:102500000E945701E114F10469F4A981BA81AB2B4F
:1025100049F462E082E00E94450187E591E00E9473
:1025200057010EC062E082E00E9445018FE591E014
:102530000E945701EF2821F489819A81892B49F360
:102540000E943B0460931002709311028093120268
:102550009093130280E10E945602892B51F0109251
:10256000280261E08DE00E947F0261E088E00E9425
:102570007F0281E10E945602892B59F081E080930D
:10258000280260E08DE00E947F0260E088E00E9407
:102590007F0283E00E945602892B51F00E94A6061A
:1025A000109215021092140210920D0210920C0259
:1025B00080910C0290910D02892B51F0109215021E
:1025C000109214020E94A60610920D0210920C02A4
:1025D0000E944A050C94CD09E5E3F2E013821282D1
:1025E00088EE93E0A0E0B0E084839583A683B78370
:1025F00080E191E09183808385EC90E095878487EA
:1026000084EC90E09787868780EC90E0918B808BBC
:1026100081EC90E0938B828B82EC90E0958B848BA5
:1026200086EC90E0978B868B118E128E138E148E13
:10263000E2EDF2E01382128282E291E091838083E4
:102640008CE084838FEF85838BE0868384E08783AF
:1026500085E0808786E0818787E0828713861486FD
:1026600015861686178681E00C94EA02052E97FBE4
:102670001EF400940E944D1357FD07D00E94601372
:1026800007FC03D04EF40C944D13509540953095B3
:1026900021953F4F4F4F5F4F0895909580957095CE
:1026A00061957F4F8F4F9F4F08950E948213A59F82
:1026B000900DB49F900DA49F800D911D112408953D
:1026C000A1E21A2EAA1BBB1BFD010DC0AA1FBB1F36
:1026D000EE1FFF1FA217B307E407F50720F0A21BA8
:1026E000B30BE40BF50B661F771F881F991F1A9415
:1026F00069F760957095809590959B01AC01BD013F
:10270000CF010895A29FB001B39FC001A39F700D98
:10271000811D1124911DB29F700D811D1124911DE9
:1027200008955058BB27AA270E94A9130C9423157B
:102730000E94151538F00E941C1520F039F49F3FB7
:1027400019F426F40C9412150EF4E095E7FB0C94A2
:102750000C15E92F0E94341558F3BA176207730756
:102760008407950720F079F4A6F50C9456150EF41D
:10277000E0950B2EBA2FA02D0B01B90190010C0191
:10278000CA01A0011124FF27591B99F0593F50F4A9
:10279000503E68F11A16F040A22F232F342F442701
:1027A000585FF3CF469537952795A795F0405395F9
:1027B000C9F77EF41F16BA0B620B730B840BBAF0C9
:1027C0009150A1F0FF0FBB1F661F771F881FC2F734
:1027D0000EC0BA0F621F731F841F48F48795779548
:1027E0006795B795F7959E3F08F0B0CF9395880F02
:1027F00008F09927EE0F9795879508950E94E814A1
:1028000008F481E008950E9417140C9423150E9487
:102810001C1558F00E94151540F029F45F3F29F06F
:102820000C940C1551110C9457150C9412150E9410
:10283000341568F39923B1F3552391F3951B550B88
:10284000BB27AA2762177307840738F09F5F5F4F83
:10285000220F331F441FAA1FA9F335D00E2E3AF0C2
:10286000E0E832D091505040E695001CCAF72BD0DA
:10287000FE2F29D0660F771F881FBB1F261737072B
:102880004807AB07B0E809F0BB0B802DBF01FF275D
:1028900093585F4F3AF09E3F510578F00C940C1519
:1028A0000C9457155F3FE4F3983ED4F386957795E3
:1028B0006795B795F7959F5FC9F7880F911D969516
:1028C000879597F90895E1E0660F771F881FBB1F72
:1028D000621773078407BA0720F0621B730B840B1F
:1028E000BA0BEE1F88F7E09508950E947C14689457
:1028F000B1110C94571508950E943C1588F09F570C
:1029000098F0B92F9927B751B0F0E1F0660F771F13
:10291000881F991F1AF0BA95C9F714C0B13091F009
:102920000E945615B1E008950C945615672F782F24
:102930008827B85F39F0B93FCCF3869577956795CE
:10294000B395D9F73EF490958095709561957F4F3A
:102950008F4F9F4F0895E89409C097FB3EF49095E0
:102960008095709561957F4F8F4F9F4F9923A9F068
:10297000F92F96E9BB279395F695879577956795F7
:10298000B795F111F8CFFAF4BB0F11F460FF1BC03B
:102990006F5F7F4F8F4F9F4F16C0882311F096E9CE
:1029A00011C0772321F09EE8872F762F05C066237C
:1029B00071F096E8862F70E060E02AF09A95660F35
:1029C000771F881FDAF7880F9695879597F90895EE
:1029D000990F0008550FAA0BE0E8FEEF1616170630
:1029E000E807F907C0F012161306E407F50798F098
:1029F000621B730B840B950B39F40A2661F0232BB1
:102A0000242B252B21F408950A2609F4A140A6952C
:102A10008FEF811D811D089597F99F6780E870E011
:102A200060E008959FEF80EC089500240A94161644
:102A3000170618060906089500240A9412161306AC
:102A4000140605060895092E0394000C11F488233A
:102A500052F0BB0F40F4BF2B11F460FF04C06F5F56
:102A60007F4F8F4F9F4F089557FD9058440F551F2C
:102A700059F05F3F71F04795880F97FB991F61F000
:102A80009F3F79F087950895121613061406551F77
:102A9000F2CF4695F1DF08C0161617061806991FE3
:102AA000F1CF86957105610508940895E894BB27D8
:102AB00066277727CB0197F908950E94E81408F458
:102AC0008FEF08950E9475150C9423150E9415151B
:102AD00038F00E941C1520F0952311F00C940C1571
:102AE0000C94121511240C9457150E94341570F390
:102AF000959FC1F3950F50E0551F629FF001729FA3
:102B0000BB27F00DB11D639FAA27F00DB11DAA1FB1
:102B1000649F6627B00DA11D661F829F2227B00DFE
:102B2000A11D621F739FB00DA11D621F839FA00D89
:102B3000611D221F749F3327A00D611D231F849FD9
:102B4000600D211D822F762F6A2F11249F57504030
:102B50009AF0F1F088234AF0EE0FFF1FBB1F661FAB
:102B6000771F881F91505040A9F79E3F510580F074
:102B70000C940C150C9457155F3FE4F3983ED4F376
:102B8000869577956795B795F795E7959F5FC1F718
:102B9000FE2B880F911D9695879597F908950E94B1
:102BA000E814880B990B0895EE0FFF1F0590F49120
:102BB000E02D09940E948213B7FF0895821B930BA6
:102BC000089581E090E0F8940C94E615F894FFCF16
:102BD00047044704000000400000A041000000003E
:102BE000DB04480472042805A30481049504000052
:102BF0000000A00648045505540553503A200043F0
:102C00000050563A2000484541540046414E00428B
:102C10004F5448004F46460044726976657220530F
:102C20007461747573200044697361626C6500455A
:102C30006E61626C65004F4E006E616E00696E667B
:102C4000006F76660046414E204D616E75616C00E6
:102C5000535441545553202020204F4E20005354AC
:102C600041545553202020204F46462000484541DE
:102C700054204D616E75616C004D616E75616C2004
:102C80004D6F6465204F5554200046414E3A200058
:102C900025004D616E75616C204D6F646520535445
:102CA00000486561743A20004D616E75616C204D7D
:102CB0006F646520535420004E65772050726F700A
:102CC0002E204761696E20004B703A20004E6577D8
:0C2CD0002053657420506F696E74200062
:00000001FF
